:020000003028A6
:10000800DF00030E8301A2000A08A3008A018316F9
:100018000C1C172883120C1C172887090C100B308E
:100028008F00DC308E0023088A00220E8300DF0E4A
:040038005F0E09004E
:0C003C00831221088A00200882000800BE
:100048001E208A110A128000840AA00A0319A10A34
:08005800D003031D2428080059
:100060008316850187019101FF3083128500FF30DF
:1000700087009001901610169015901010140B30F8
:100080008F00DC308E0083160C148B17462847280F
:02400E00C431BB
:00000001FF
